:100000000C949A010C94AC040C9485040C94C201D9
:100010000C94C2010C94C2010C94C2010C94C20154
:100020000C94C2010C94C2010C94C2010C94C20144
:100030000C94C2010C94C2010C94C2010C94C20134
:100040000C943B040C94C2010C9450030C942A03AE
:100050000C94C2010C94C2010C94C2010C94C20114
:100060000C94C2010C94C201C80BC50B790C710C25
:10007000710CC50BC50B8F0CC50BC50BC50BCD0B80
:10008000C50BC50BC50B710CCF0BD40BD80BC50B17
:10009000C50B5C0C00000000240027002A000102B0
:1000A0000408102040800102040810200102040806
:1000B00010200404040404040404020202020202E4
:1000C0000303030303030A417661696C61626C6593
:1000D00020636F6D6D616E64733A0A2020202020CA
:1000E0002E2E2C2E2E2073202020202D2073656E86
:1000F000642064617461207061636B65740A202000
:100100002020202020202020206C202020202D2096
:100110006C69737420646576696365730A202020B6
:10012000202020203C6E3E2061202020202D2074A5
:1001300075726E206163746976697479204C4544E8
:10014000206F6E20504231206F6E206F72206F66DC
:10015000660A202020202020203C6E3E20632020A4
:1001600020202D20636F6E6669672028303D666908
:100170006C6C2C20313D6C6F61642C20323D7361BE
:1001800076652C20333D6572617365290A20202035
:10019000202020203C6E3E2064202020202D207432
:1001A00075726E206F666620646576696365203CB3
:1001B0006E3E0A202020202020203C6E3E2065201C
:1001C0002020202D207475726E206F6E206465765D
:1001D000696365203C6E3E0A202030783C68686880
:1001E000683E2068202020202D20736574206365E0
:1001F0006E746572206672657175656E6379206FC5
:10020000666673657420284578616D706C653A2068
:10021000307830334236203D3E203836382E39355E
:10022000304D487A290A202020202020202020201C
:1002300020202020202020206E6F74653A206C65DD
:100240006164696E67207A65726F73206D7573746F
:1002500020626520656E74657265640A2020202026
:100260002020203C6E3E2070202020202D20706F0A
:100270006C6C20646576696365203C6E3E0A2020C4
:1002800020202020203C6E3E2072202020202D2087
:100290006C697374207265636F7264696E67730A48
:1002A000202020202020203C6E3E20712020202075
:1002B0002D207175696574206D6F64652028313D4E
:1002C000737570707265737320545820616E64206A
:1002D000626164207061636B657473290A20202059
:1002E000202020203C6E3E2076202020202D2076CD
:1002F000657273696F6E20616E6420636F6E6669EC
:100300006775726174696F6E207265706F72740ABE
:100310000000000000250028002B0000000008005D
:1003200002010000030407000000000000000000BC
:10033000A4109E1011241FBECFEFD8E0DEBFCDBFAA
:1003400011E0A0E0B1E0E4ECFAE202C005900D9209
:10035000A439B107D9F724E0A4E9B1E001C01D92A6
:10036000AF37B207E1F711E0C9E9D1E004C0219746
:10037000FE010E94D610C839D107C9F70E9484092E
:100380000C9455150C9400000895CF92DF92EF92D3
:10039000FF920F931F93CF93DF936C017A018B0130
:1003A000C0E0D0E0CE15DF0589F0D8016D918D0158
:1003B000D601ED91FC910190F081E02DC6010995E7
:1003C000892B11F47E0102C02196ECCFC701DF9189
:1003D000CF911F910F91FF90EF90DF90CF900895F4
:1003E000FC01918D828D981761F0828DDF01A80F3D
:1003F000B11D5D968C91928D9F5F9F73928F90E05F
:1004000008958FEF9FEF0895FC01918D828D9817CD
:1004100031F0828DE80FF11D858D90E008958FEF0A
:100420009FEF0895FC01918D228D892F90E0805CD3
:100430009F4F821B91098F739927089588ED93E050
:100440000E94120221E0892B09F420E0822F0895F6
:10045000FC01848DDF01A80FB11DA35ABF4F2C9161
:10046000848D90E001968F739927848FA689B78930
:100470002C93A089B1898C9180648C93938D848D09
:10048000981306C00288F389E02D80818F7D8083D8
:100490000895EF92FF920F931F93CF93DF93EC0198
:1004A00081E0888F9B8D8C8D981305C0E889F98930
:1004B000808185FD24C0F62E0B8D10E00F5F1F4F4D
:1004C0000F731127E02E8C8DE8120CC00FB607FCBD
:1004D000FACFE889F989808185FFF5CFCE010E94A6
:1004E0002802F1CF8B8DFE01E80FF11DE35AFF4F7B
:1004F000F0820B8FEA89FB898081806207C0EE89D8
:10050000FF896083E889F98980818064808381E044
:1005100090E0DF91CF911F910F91FF90EF900895A0
:10052000CF93DF93EC01888D8823C9F0EA89FB899A
:10053000808185FD05C0A889B9898C9186FD0FC091
:100540000FB607FCF5CF808185FFF2CFA889B98966
:100550008C9185FFEDCFCE010E942802E7CFDF917D
:10056000CF91089580E090E0892B29F00E941E022F
:1005700081110C9400000895089581E08093970103
:1005800008950E9486130F931F93CF93DF93EC017E
:1005900088819981009729F02A813B8126173707A6
:1005A00088F48B016F5F7F4F0E94BC12009761F04F
:1005B000998388831B830A832C813D81232B11F42B
:1005C000FC01108281E001C080E0DF91CF911F919A
:1005D0000F910895EF92FF920F931F93CF93DF93A4
:1005E000EC017B018A01BA010E94C3022881398192
:1005F00081110DC02115310519F0C9010E94241285
:10060000198218821D821C821B821A8206C01D83D9
:100610000C83B701C9010E949413CE01DF91CF91E1
:100620001F910F91FF90EF900895FC0111821082AD
:1006300013821282158214826115710551F0FB013B
:1006400001900020E9F73197AF01461B570B0C943E
:10065000EA0208951F920F920FB60F9211242F9362
:100660003F934F935F936F937F938F939F93AF933A
:10067000BF93EF93FF9388ED93E00E942802FF91D0
:10068000EF91BF91AF919F918F917F916F915F910A
:100690004F913F912F910F900FBE0F901F90189583
:1006A0001F920F920FB60F9211242F938F939F9347
:1006B000EF93FF93E091E803F091E9038081E091EB
:1006C000EE03F091EF0382FD12C090818091F1035F
:1006D0008F5F8F732091F203821751F0E091F10345
:1006E000F0E0E852FC4F958F8093F10301C08081C8
:1006F000FF91EF919F918F912F910F900FBE0F90CF
:100700001F90189590E0FC01E55EFC4F3491FC01D0
:10071000E256FF4F2491FC01EE54FF4FE491EE238B
:1007200009F43BC0332339F1333091F038F43130E0
:10073000A9F0323001F584B58F7D12C0373091F0C9
:100740003830A1F03430B9F4809180008F7D03C03F
:10075000809180008F77809380000DC084B58F7763
:1007600084BD09C08091B0008F7703C08091B00034
:100770008F7D8093B000F0E0EE0FFF1FEF5EFC4F27
:10078000A591B4918FB7F894EC91611103C02095B5
:100790002E2301C02E2B2C938FBF0895CF93DF9370
:1007A00090E0FC01E256FF4F2491FC01EE54FF4F14
:1007B0008491882361F190E0880F991FFC01EC5629
:1007C000FF4FC591D491FC01EF5EFC4FA591B49110
:1007D000611109C09FB7F89488812095822388838E
:1007E000EC912E230BC0623061F49FB7F8943881EE
:1007F000822F809583238883EC912E2B2C939FBF8F
:1008000006C08FB7F894E8812E2B28838FBFDF9125
:10081000CF9108953FB7F89480918D0390918E0306
:10082000A0918F03B091900326B5A89B05C02F3FE0
:1008300019F00196A11DB11D3FBFBA2FA92F982F06
:100840008827820F911DA11DB11DBC01CD0142E081
:10085000660F771F881F991F4A95D1F708952FB704
:10086000F8946091890370918A0380918B03909131
:100870008C032FBF08951F920F920FB60F92112471
:100880002F933F938F939F93AF93BF93809189034F
:1008900090918A03A0918B03B0918C0330918803CF
:1008A00023E0230F2D3720F40196A11DB11D05C0B3
:1008B00026E8230F0296A11DB11D20938803809383
:1008C000890390938A03A0938B03B0938C03809148
:1008D0008D0390918E03A0918F03B09190030196A8
:1008E000A11DB11D80938D0390938E03A0938F0360
:1008F000B0939003BF91AF919F918F913F912F91B2
:100900000F900FBE0F901F9018951F920F920FB669
:100910000F9211242F933F934F935F936F937F9385
:100920008F939F93AF93BF93EF93FF93E0910B014E
:10093000F0910C010995FF91EF91BF91AF919F91BB
:100940008F917F916F915F914F913F912F910F9078
:100950000FBE0F901F9018951F920F920FB60F9217
:1009600011242F933F934F935F936F937F938F93B4
:100970009F93AF93BF93EF93FF93E0910901F091A1
:100980000A010995FF91EF91BF91AF919F918F91CE
:100990007F916F915F914F913F912F910F900FBE7B
:1009A0000F901F901895962728E030E0AC01440F77
:1009B000551F97FF05C0CA0165E08627905801C002
:1009C000CA012150310991F70895CF93DF93E3EEE7
:1009D000F1E010828CE291E09283818388EB9BE0CE
:1009E0009483838391E0958380E1A9EEB1E0ED01EA
:1009F000282F19922A95E9F796834AEA5AEA6AE07B
:100A000070E04783508761877287A9EFB1E0ED01FD
:100A100019928A95E9F782E0868B8BEB9BEBABE032
:100A2000B0E0878B908FA18FB28FDF91CF91089527
:100A3000CF93DF9380E090E0C3EED1E069910E9414
:100A4000D30423E0C932D207C9F790938703809378
:100A5000860390932A038093290348E451E060E0E1
:100A600070E083EE91E0DF91CF910C94A314CF93CB
:100A7000DF93109287031092860348E451E060E010
:100A800070E083EE91E00E94931480918603909130
:100A90008703C3EED1E069910E94D30423E0C932F9
:100AA000D207C9F790938703809386032091290387
:100AB00030912A0382179307D1F48091E30190E0EB
:100AC000E3EEF1E020E030E02817390774F41586F2
:100AD000148617861686108A118A128A138A158A36
:100AE000148A2F5F3F4F7096EFCF81E001C080E006
:100AF000DF91CF9108951F93CF93DF938EE291E022
:100B00000E94990881E391E00E9499088EE20E9478
:100B1000DC088BE391E00E9499088DE50E94DC08D7
:100B20000E948908C6ECD0E0FE011491112351F017
:100B30001A3019F48DE00E94DC08812F0E94DC0835
:100B40002196F2CFDF91CF911F910C9489080C94DC
:100B50001509CF93C82F61E089E00E94CE0361E0C0
:100B6000C11160E089E0CF910C948203CF93815052
:100B70009091E301891708F056C090E1899FF00138
:100B80001124DF01AD51BE4F16968C918093A101C7
:100B90006A3611F481E104C0603709F042C084E094
:100BA0008093A201ED51FE4F87819085218520938E
:100BB000A3019093A4018093A501653621F481E0FF
:100BC0008093A60102C01092A6018FEF8093AA0124
:100BD0008093A9018093A8018093A7018AE0809364
:100BE000A0018091E80181111EC08AE291E00E947B
:100BF000990888E190E00E94E708C0E08091A00198
:100C0000C81760F480E20E94DC08EC2FF0E0EF559A
:100C1000FE4F80810E94A705CF5FF0CFCF910C944B
:100C2000890885E0BDCFCF910895FF920F931F9360
:100C3000CF93DF93F82EC9EED1E020E030E0409171
:100C4000E30150E0241735070CF063C089010F5F02
:100C50001F4F81E0F81641F082E0F81216C085E7D8
:100C600091E00E94990811C082E791E00E949908E2
:100C700088E190E00E94E70880E20E94DC08C80159
:100C80000E94E70880E20E94DC086E857F8580E094
:100C900090E04AE00E949B0888E791E00E94990852
:100CA00088810E9415098CE791E00E9499088B8148
:100CB0000E94150980E20E94DC088A810E941509C1
:100CC00080E20E94DC0889810E94150980E20E946E
:100CD000DC088D810E94150980E20E94DC088F816A
:100CE0000E94150980E20E94DC088E810E9415098D
:100CF00080E20E94DC0889850E94150980E20E943A
:100D0000DC0888850E9415090E9489089801609670
:100D100096CFDF91CF911F910F91FF9008958DEBAA
:100D200092E090930A0180930901E9E6F0E0808166
:100D300083608083E89A08954F925F926F927F92CA
:100D4000AF92BF92CF92DF92EF92FF920F931F93D9
:100D5000CF93DF9380917E0381110DC00E942F04F9
:100D600060937A0370937B0380937C0390937D035D
:100D700081E080937E030E942F042B013C0180912F
:100D80007A0390917B03A0917C03B0917D03481678
:100D900059066A067B0609F446C084159505A60522
:100DA000B70548F4A3019201281B390B4A0B5B0BD2
:100DB000DA01C90108C080959095A095B095840D81
:100DC000951DA61DB71D9C01AD0160E070E080E09F
:100DD00090E0A0909801B0909901C0909A01D090B5
:100DE0009B01E0909C01F0909D0100919E0110916B
:100DF0009F010E94DC102093980130939901409349
:100E00009A0150939B0160939C0170939D01809384
:100E10009E0190939F0140927A0350927B036092CF
:100E20007C0370927D03DF91CF911F910F91FF9012
:100E3000EF90DF90CF90BF90AF907F906F905F90DA
:100E40004F9008958EBD00000DB407FEFDCF8EB506
:100E50000895CF93DF93D82FC62F60E08AE00E94D9
:100E600082038D2F80680E9422078C2F0E94220708
:100E700061E08AE0DF91CF910C94820360E188E227
:100E80000C942907CF92DF92EF92FF920E940514F3
:100E900020E030E04AE75DE30E94EE100E9460111E
:100EA0006B017C01B7018827992787E00E942907F9
:100EB00099278F2D7E2D6D2D88E00E9429076C2D9E
:100EC00089E0FF90EF90DF90CF900C942907CF93AB
:100ED000C82F60E08AE00E9482038C2F0E942207C4
:100EE00080E00E942207C82F61E08AE00E9482030E
:100EF0008C2FCF91089580910801843071F48091F6
:100F00009701882319F010929701089588E20E94B2
:100F1000670782FB882780F9089580E008951F9372
:100F2000CF93DF9300D01F92CDB7DEB7182F2B835E
:100F30004A8369830E9467076981E62F4A81042EEC
:100F400001C0EE0F0A94EAF7E0958E232B81262349
:100F500001C0220F4A95EAF7682F622B812F0F906C
:100F60000F900F90DF91CF911F910C942907262F9E
:100F7000E82FF0E0843038F443E050E04E1B5F0B84
:100F8000440F85E206C047E050E04E1B5F0B440F64
:100F900086E263E00C948F073F924F925F926F92CC
:100FA0007F928F929F92AF92BF92CF92DF92EF92F9
:100FB000FF920F931F93CF93DF93C82F843039F4A0
:100FC000809100018F3F69F06091950108C08330E6
:100FD00041F4809101018F3F21F0609196010E94C0
:100FE000B707109297012C2F42E067E081E00E9442
:100FF0008F07209198013091990140919A01509169
:101000009B0160919C0170919D0180919E01909146
:101010009F0128513C4F4F4F5F4F6F4F7F4F8F4F76
:101020009F4FD22F932E842E752E662E572E482E2C
:10103000392E87E20E94670790E0880F892F881F6A
:10104000990B892B09F50E949C06209198013091FB
:10105000990140919A0150919B0160919C0170917E
:101060009D0180919E0190919F01AD2EB92CC82CBD
:10107000D72CE62CF52C042D132D0E94E510C8F278
:1010800080E891E00E948D0880919401882399F076
:10109000C33049F46DE58AE50E9429076CE78CE5C9
:1010A0000E94290710C065E58AE50E94290760E7CC
:1010B0008CE50E942907C43031F421E042E061E070
:1010C0008DE30E948F07C0930801DF91CF911F919C
:1010D0000F91FF90EF90DF90CF90BF90AF909F90D7
:1010E0008F907F906F905F904F903F900895009702
:1010F00069F0FC0101900020E9F73197AF01481B2E
:10110000590BBC0188ED93E00C94C50180E090E0A0
:10111000089580E991E00C947708CF93DF930E94C3
:101120007708EC010E9489088C0F9D1FDF91CF91F9
:1011300008950C9477088F929F92AF92BF920F936D
:101140001F93CF93DF93CDB7DEB7A1970FB6F89477
:10115000DEBF0FBECDBF19A2423008F44AE08E01B7
:101160000F5D1F4F842E912CA12CB12CA501940151
:101170000E942415E62FB901CA0101501109EA3075
:1011800014F4E05D01C0E95CD801EC93232B242B1F
:10119000252B61F7C8010E947708A1960FB6F89435
:1011A000DEBF0FBECDBFDF91CF911F910F91BF90DA
:1011B000AF909F908F900895E091D803F091D9035C
:1011C0000190F081E02D682F88ED93E00994CF9293
:1011D000DF92EF92FF92CF93DF936C01990FEE08AD
:1011E000FF08F7FE17C08DE20E94DC08EC016627BD
:1011F0007727CB016C197D098E099F094AE00E946F
:101200009B088C0F9D1FDF91CF91FF90EF90DF9097
:10121000CF9008954AE0C701B601DF91CF91FF90CA
:10122000EF90DF90CF900C949B08682F70E080E0E7
:1012300090E04AE00C949B08CF93DF934AE00E9431
:101240009B08EC010E9489088C0F9D1FDF91CF91B4
:1012500008950F931F93E1E9F3E09681478120857C
:10126000818550E0592B60E070E0BA015527442792
:1012700090E0922BA0E0B0E08A019B01082B192B93
:101280002A2B3B2BC901B8011F910F910895CF93D1
:10129000DF93EC0180917504909176040097C9F07A
:1012A000688179816115710591F0409177045091C1
:1012B00078042C813D814217530748F00E94941313
:1012C0008C819D8190937A048093790418C00E9448
:1012D00024128881998190937604809375048A8181
:1012E0009B8190937804809377048C819D81909367
:1012F0007A0480937904198218821B821A821D82D3
:101300001C82DF91CF910895CF93DF93CDB7DEB7E5
:101310002D970FB6F894DEBF0FBECDBF789484B57D
:10132000826084BD84B5816084BD85B5826085BDE1
:1013300085B5816085BD80916E00816080936E006F
:101340001092810080918100826080938100809161
:101350008100816080938100809180008160809312
:1013600080008091B10084608093B1008091B000D2
:1013700081608093B00080917A00846080937A00CD
:1013800080917A00826080937A0080917A008160F7
:1013900080937A0080917A00806880937A0010921E
:1013A000C100E091E803F091E90382E08083E091DD
:1013B000E803F091E9031082E091E403F091E50382
:1013C0001082E091E603F091E70380E180831092C0
:1013D000F003E091EC03F091ED0386E08083E0916F
:1013E000EA03F091EB03808180618083E091EA035E
:1013F000F091EB03808188608083E091EA03F091B3
:10140000EB03808180688083E091EA03F091EB0335
:1014100080818F7D80838AE080932C0381E080939C
:10142000940161E08AE00E94CE031FB7F894809196
:101430002B03811127C0ECEBF0E08491E8EAF0E0A7
:101440009491E82FF0E0EE0FFF1FEC56FF4FA591AF
:10145000B491EC91E92321F461E08AE00E948203D7
:1014600061E08AE00E94CE038CB580618CBD8CB5B2
:1014700080648CBD61E08DE00E94CE0361E08BE072
:101480000E94CE0380912B038F5F80932B031FBF9D
:101490008CB58F7D8CBD23E045E067E081E10E9443
:1014A0008F0720E044E061E083E10E948F0781E044
:1014B0000E94CC0766E572E48DE090E00E9442074E
:1014C00062E183E00E94290769ED84E00E94290718
:1014D0001092000181E08093950110920101109219
:1014E000960127E040E067E086E20E948F0720E057
:1014F00044E061E087E30E948F0721E043E061E080
:1015000087E30E948F076CE088E30E94290721E0AF
:1015100043E067E08EE20E948F07609102018FE254
:101520000E9429076091030180E30E94290721E0BE
:1015300047E061E08EE20E948F0722E040E067E032
:1015400089E10E948F076CED89E20E9429071092C1
:101550002D0320E047E061E087E30E948F0721E050
:1015600047E061E08CE30E948F0762E085E00E9423
:10157000290761EE86E00E94290784E00E94CC07DB
:101580000E943E0760E082E00E94CE030E948F0628
:1015900080E00E94A9050E947B050E943705811109
:1015A00002C00E94E50481E08093E80182E993E0B3
:1015B00029E0280F2D870E949C060E947B07882324
:1015C000D1F110927703109276030E947B07882353
:1015D000D9F080E00E946707E091780391E09E0FC8
:1015E00090937803F0E0EF56FC4F80839B3068F7D0
:1015F000682F80917603909177030E94D304909393
:10160000770380937603E1CF80917803882399F064
:1016100080919B0390E0982F882720919C03822B38
:1016200020917603309177038217930721F410926B
:1016300077031092760388ED93E00E941202892BC3
:1016400009F46BC288ED93E00E94F001182F67E265
:1016500071E0CE0101960E9415034D815E8180915B
:10166000790490917A04E980FA808417950788F0CC
:101670008091750490917604009759F0E114F1047B
:1016800041F0B7010E949B13892B19F401E0183631
:1016900009F400E0C7010E942412002369F18FEBD6
:1016A000810F863028F080ED810F8A3008F035C236
:1016B00019831A820091790410917A040F5F1F4FE9
:1016C000B80185E794E00E94C302882309F425C28B
:1016D00020917504309176048091790490917A0478
:1016E000BE016F5F7F4F820F931F0E949413109370
:1016F0007A040093790411C280ED810F8A3060F47E
:1017000080917503880F982F990F990F890F805337
:10171000180F1093750301C21C3279F4E091740321
:10172000E634D8F481E08E0F80937403F0E0E25D3C
:10173000FC4F80917503808310C0183789F467E2ED
:1017400071E0CE0101960E941503CE0101960E9420
:10175000470989819A810E94241210927503DDC184
:101760008FE9810F873108F082C1812F012E000C93
:10177000990BAA0BBB0BFC01E156F109E631F1050F
:1017800020F4EC5CFF4F0C94D6100E947B0564C1E2
:10179000809175030E94A9055FC181E006C0809118
:1017A00075038093E80158C182E00E94150654C178
:1017B000E0917403E63408F04FC111E01E0F10935E
:1017C0007403F0E0E25DFC4F809175038083109319
:1017D000A00183E780937903412F50E06EE273E02C
:1017E00081EA91E00E948B131A3009F048C0809181
:1017F000A201853009F043C03091A3018091A4017A
:101800002091A50190E0A0E0B0E0BA2FA92F982F79
:101810008827A32B822B2091E30130E043EE51E097
:1018200000E010E00217130754F5405F5F4FFA0124
:101830003997C080D180E280F380C816D906EA06C5
:10184000FB06D1F40E942F040F5F30E1039F80015B
:1018500011240D511E4F24E630E040E050E00E947C
:101860002415DA01C9010A96A11DB11DF801808372
:101870009183A283B38303C00F5F1F4FD3CF8091A7
:10188000E8018111E9C08AE291E00E94990888E1AB
:1018900090E00E94E70810E08091A0011817F0F492
:1018A00080E20E94DC08E12FF0E0EF55FE4F8081DE
:1018B0000E94A7051F5FF0CF8EE291E00E94990879
:1018C00081E391E00E9499088EE20E94DC088BE39C
:1018D00091E00E9499088DE50E94DC080E94890829
:1018E000BBC0612F809175030E94B60510937903E8
:1018F000B3C080917503813061F040F0823061F0B7
:10190000833009F0A9C01092E301A6C00E94E5044B
:10191000A3C00E943705A0C00E9418059DC080E4A6
:1019200091E00E9499081A8219821C821B821E82F1
:101930001D8260917504709176046115710541F006
:101940004091790450917A04CE0101960E94EA02F6
:1019500089819A81ED80FE80E0E0F0E020E030E0D7
:10196000EE15FF0509F44EC0009731F0AC014E0FA3
:101970005F1FDA014C9101C040E0642F042E000C7F
:10198000770B8B01005311090A30110510F0AB01E0
:1019900009C0042E000C550B660B770B4053510900
:1019A00061097109BA01615471096630710540F429
:1019B000052E000C660B770B47535109610971091D
:1019C000BA01615671096630710548F4052E000CA4
:1019D000660B770B475551096109710902C057FD24
:1019E00006C0403151052CF04FE050E002C040E00D
:1019F00050E004E0220F331F0A95E1F7240F351F52
:101A00003196AECF6901E12CF12CB0EACB0EBEE3EA
:101A1000DB1EBDE0EB1EF11CC0920401D09205015B
:101A2000E0920601F09207010E942412C701B6015C
:101A30000E944207C701B6010E941C0962E971E0D9
:101A4000CE0101960E941503CE0101960E9447091E
:101A500089819A810E942412109274031092750356
:101A600086E4EEE2F3E011928A95E9F756C01B3264
:101A700031F01D3221F0133209F04AC038C080E540
:101A800091E00E9499088091040190910501A09134
:101A90000601B09107011B3221F40196A11DB11D71
:101AA00003C00197A109B109809304019093050136
:101AB000A0930601B09307016091040170910501A4
:101AC00080910601909107010E944207812F0E9498
:101AD000DC0889E791E00E94990860910401709107
:101AE000050180910601909107010E941C09109246
:101AF000750362E971E0CE0101960E941503CE01E3
:101B000001960E94470989819A810E94241205C08A
:101B10001152103210F40E947B05809179038111DB
:101B2000AEC013EEC12E11E0D12EE12CF12C80912C
:101B3000E30190E0E816F9060CF0A1C00E942F0422
:101B4000F0E1CF0ED11C24E630E040E050E00E94EE
:101B50002415F60180819181A281B38187010F5FF5
:101B60001F4F82179307A407B50708F086C0C70167
:101B7000B4E0880F991FBA95E1F7FC01ED51FE4FD3
:101B8000248935892F3F310509F020F42F5F3F4F1D
:101B9000358B248BFC01ED51FE4F84899589059787
:101BA00088F50E942F042B013C010E94F7134B0182
:101BB0005C01A4E0000F111FAA95E1F70D511E4F23
:101BC000C301B20124E630E040E050E00E94241559
:101BD00029013A01FAE04F0E511C611C711CC5012C
:101BE000B4012EE130E040E050E00E94BB14460E0C
:101BF000571E681E791ED8014D925D926D927C929F
:101C0000139732C00E942F042B013C010E94F7134E
:101C10004B015C01F4E0000F111FFA95E1F70D5143
:101C20001E4FC301B20124E630E040E050E00E94C4
:101C300024158091E6019091E70129013A01480EAF
:101C4000591E611C711CC501B4012EE130E040E059
:101C500050E00E94BB14460E571E681E791EF80104
:101C6000408251826282738260E781E08E0D0E9421
:101C7000B60580E78093790302C0780158CF809140
:101C800008018F3F59F481E00E94670790E0959525
:101C900087959595879587708093080180910801B5
:101CA000843009F0A6C080917803882309F4A1C08C
:101CB0000E943E0720917603309177038091E801DE
:101CC000232B09F06BC1811148C181E00E94A90555
:101CD00087E591E00E94990880E20E94DC0888E193
:101CE00090E00E94E70880E20E94DC088091910366
:101CF000811102C08091A2010E94A70502E913E0B0
:101D000080E20E94DC08D8018D918D010E94A70518
:101D1000BD85B013F5CF0E94890880E00E94A90517
:101D20008091760390917703892B09F05CC09091A4
:101D30009303C090940380919503D12CE12CF12C56
:101D4000FE2CED2CDC2CCC24E92AC82A1091E301CE
:101D5000412F50E023EE31E080E090E084179507BA
:101D60000CF421C11F5F1093E30120E1129FF001E9
:101D70001124ED52FE4FC782D086E186F286809113
:101D8000910381112FC1168301E00E9429096A3A4B
:101D90007A4A8A4A9A4A09F029C180919203853089
:101DA000D1F40E942F0450E1159F90011124D90114
:101DB000AD51BE4F5D0124E630E040E050E00E94AE
:101DC0002415DA01C9010596A11DB11DF501808315
:101DD0009183A283B38380919103882309F474C112
:101DE00001110E9418051092780310927703109247
:101DF000760380917903882309F4ACC081E00E94C6
:101E0000A9051091A00151EAE52E51E0F52E6701D8
:101E100080E090E02C2D2E19211730F4D6016D9121
:101E20006D010E94D304F6CF8093760390937703DD
:101E3000E12FF0E0EF55FE4F908302E0010F009399
:101E4000A0011F5FE12FF0E0EF55FE4F808321E0FE
:101E500042E061E08DE30E948F0781E00E94CC07A1
:101E60000E943E07E8988CEB92E090930A018093E1
:101E7000090160E08AE00E94820380E80E94220754
:101E800041EAE42E41E0F42E002339F0F70181917C
:101E90007F010E9422070150F7CF61E08AE00E9493
:101EA00082030E948F0683E00E94CC072091980154
:101EB0003091990140919A0150919B0160919C0150
:101EC00070919D0180919E0190919F0128513C4FFE
:101ED0004F4F5F4F6F4F7F4F8F4F9F4F922E832EED
:101EE000742E652E562E472E382E292E809197015E
:101EF000811123C00E949C06209198013091990184
:101F000040919A0150919B0160919C0170919D01BB
:101F100080919E0190919F01A92CB82CC72CD62CA2
:101F2000E52CF42C032D122D0E94E510F8F284E626
:101F300091E00E948D080E943E0781E00E94CC073C
:101F400084E00E94CC07109279031092A00180E0F7
:101F50000E94A9050E94B2022ECB80919103882392
:101F600009F4B3CE0E9429096F3F7F4F8F4F9F4FD7
:101F700039F4109278031092770310927603EACF27
:101F800080919203853009F4A0CE0E9429096A3A13
:101F90007A4A8A4A9A4A09F098CEEBCF8111E9CF62
:101FA0008AE591E097CE205F3F4FF9013997808015
:101FB0009180A280B3808C149D04AE04BF0439F4D8
:101FC00011E0180F80919103811103C00DC001969B
:101FD000C5CE20E1129FF0011124ED52FE4F9681F3
:101FE000981711F08683D0CE00E0CFCE0E94290949
:101FF0006F3F7F4F8F4F9F4F09F4CFCEA12EB12C53
:10200000C50124E0880F991F2A95E1F7AC014D52D4
:102010005E4F1A0180919603DA011B968C931B97F1
:10202000209197038091980390E0922B1D969C93AA
:102030008E931C972091990380919A0390E0922BA4
:102040001F969C938E931E970E942F046F83788710
:1020500089879A870E94F7132B013C01C50134E060
:10206000880F991F3A95E1F7FC01ED51FE4FFC876F
:10207000EB876F81788589859A8524E630E040E09A
:1020800050E00E9424158091E4019091E5014901FE
:102090005A01880E991EA11CB11CC301B2012EE188
:1020A00030E040E050E00E94BB14860E971EA81E50
:1020B000B91EAB85BC858D929D92AD92BC92139753
:1020C000F101158A148A87CE8091E801811108C038
:1020D0008DE591E00E949908C701B6010E941C0994
:1020E0000E940A044B015C0166E4C62ED12CE12C4F
:1020F000F12C0E940A04DC01CB0188199909AA0974
:10210000BB09883E9340A105B10558F0F1E0CF1A14
:10211000D108E108F10828EE820E23E0921EA11CEE
:10212000B11CC114D104E104F10419F76AE6812F4E
:102130000E94B6058AE68093790352CE8091750499
:10214000909176040C942412E8EDF3E0138212824D
:1021500088EE93E0A0E0B0E084839583A683B78304
:102160008BE191E09183808385EC90E09587848773
:1021700084EC90E09787868780EC90E0918B808B51
:1021800081EC90E0938B828B82EC90E0958B848B3A
:1021900086EC90E0978B868B118E128E138E148EA8
:1021A00062E971E085E794E00C941503EE0FFF1FE0
:1021B0000590F491E02D09942A0D3B1D4C1D5D1DE9
:1021C0006E1D7F1D801F911F08952A153B054C052C
:1021D0005D056E057F058007910708950E94021135
:1021E0000C9459140E94521458F00E944B1440F061
:1021F00029F45F3F29F00C94421451110C948D1472
:102200000C9448140E946A1468F39923B1F355237F
:1022100091F3951B550BBB27AA27621773078407F9
:1022200038F09F5F5F4F220F331F441FAA1FA9F38F
:1022300035D00E2E3AF0E0E832D091505040E6957D
:10224000001CCAF72BD0FE2F29D0660F771F881FDE
:10225000BB1F261737074807AB07B0E809F0BB0BD1
:10226000802DBF01FF2793585F4F3AF09E3F5105E5
:1022700078F00C9442140C948D145F3FE4F3983E74
:10228000D4F3869577956795B795F7959F5FC9F7CE
:10229000880F911D9695879597F90895E1E0660F4F
:1022A000771F881FBB1F621773078407BA0720F0C8
:1022B000621B730B840BBA0BEE1F88F7E095089531
:1022C0000E94721488F09F5798F0B92F9927B75140
:1022D000B0F0E1F0660F771F881F991F1AF0BA95CA
:1022E000C9F714C0B13091F00E948C14B1E0089588
:1022F0000C948C14672F782F8827B85F39F0B93F7A
:10230000CCF3869577956795B395D9F73EF490957C
:102310008095709561957F4F8F4F9F4F0895CF9314
:10232000DF938230910510F482E090E0E0917D042B
:10233000F0917E0420E030E0C0E0D0E0309711F171
:102340004081518148175907C0F04817590761F477
:1023500082819381209719F09B838A832BC090936D
:102360007E0480937D0426C02115310519F04217A3
:10237000530718F49A01BE01DF01EF010280F381D7
:10238000E02DDCCF2115310509F1281B390B243054
:10239000310590F412968D919C91139761157105FA
:1023A00021F0FB019383828304C090937E04809389
:1023B0007D04FD01329644C0FD01E20FF31F8193BD
:1023C0009193225031092D933C933AC020917B0484
:1023D00030917C04232B41F420910F0130911001A6
:1023E00030937C0420937B0420910D0130910E01E9
:1023F0002115310541F42DB73EB74091110150919F
:102400001201241B350BE0917B04F0917C04E21750
:10241000F307A0F42E1B3F0B2817390778F0AC0107
:102420004E5F5F4F2417350748F04E0F5F1F5093E4
:102430007C0440937B048193919302C0E0E0F0E040
:10244000CF01DF91CF9108950F931F93CF93DF9327
:10245000009709F48CC0FC0132971382128200911C
:102460007D0410917E040115110581F420813181D4
:10247000820F931F20917B0430917C042817390729
:1024800079F5F0937C04E0937B0471C0D80140E0BF
:1024900050E0AE17BF0750F412962D913C91139760
:1024A000AD012115310509F1D901F3CF9D01DA0103
:1024B0003383228360817181860F971F8217930770
:1024C00069F4EC0128813981260F371F2E5F3F4FB9
:1024D000318320838A819B8193838283452B29F4D6
:1024E000F0937E04E0937D0442C01396FC93EE9338
:1024F0001297ED01499159919E01240F351FE21762
:10250000F30771F480819181840F951F02961196D3
:102510009C938E938281938113969C938E931297B2
:10252000E0E0F0E0D80112968D919C91139700970E
:1025300019F0F8018C01F6CF8D919C9198012E5FD6
:102540003F4F820F931F20917B0430917C0428170A
:10255000390769F4309729F410927E0410927D04B3
:1025600002C01382128210937C0400937B04DF91DB
:10257000CF911F910F910895A0E0B0E0E2ECF2E15D
:102580000C94F114EC01009721F4CB010E948F11FF
:10259000B8C0FC01E60FF71F9C0122503109E21779
:1025A000F30708F4ACC0D9010D911C9111970617DF
:1025B0001707B0F00530110508F49FC0C801049753
:1025C0008617970708F499C002501109061B170BCC
:1025D000019311936D937C93CF010E9424128DC0BF
:1025E0005B01A01AB10A4C01800E911EA0917D04DE
:1025F000B0917E0440E050E0E12CF12C109709F4FA
:102600004AC0A815B905D1F56D907C90119763016A
:1026100082E0C80ED11CCA14DB0480F1A3014A1960
:102620005B096A0182E0C80ED11C1296BC90129719
:102630001396AC91B5E0CB16D10440F0B282A383DF
:1026400051834083D9016D937C930AC00E5F1F4F65
:10265000C301800F911FF90191838083EB2DFA2F25
:10266000E114F10431F0D7011396FC93EE93129725
:1026700044C0F0937E04E0937D043FC08D919C9113
:1026800011974817590708F4AC017D0112960D9077
:10269000BC91A02DB3CF80917B0490917C048815D0
:1026A0009905E1F446175707C8F480910D01909100
:1026B0000E01009741F48DB79EB7409111015091E2
:1026C0001201841B950BE817F907C8F4F0937C04FA
:1026D000E0937B04F901718360830FC0CB010E94FA
:1026E0008F117C01009759F0A801BE010E948B1345
:1026F000CE010E942412C70104C0CE0102C080E0B6
:1027000090E0CDB7DEB7EEE00C940D1581E090E0DF
:10271000F8940C945515FB01DC0102C001900D9258
:1027200041505040D8F70895FB01DC0101900D9213
:102730000020E1F70895FB01DC014150504030F0EA
:102740008D910190801919F40020B9F7881B990B1D
:1027500008958F929F92AF92BF92CF92DF92EF92A5
:10276000FF92CF93DF93EC01688179818A819B810D
:10277000611571058105910521F464E279ED8BE520
:1027800097E02DE133EF41E050E00E94BB14490196
:102790005A019B01AC01A7EAB1E40E94DA146B0173
:1027A0007C01ACEEB4EFA50194010E94E814DC01B9
:1027B000CB018C0D9D1DAE1DBF1DB7FF03C0019742
:1027C000A109B04888839983AA83BB83BC01CD014A
:1027D0009F77DF91CF91FF90EF90DF90CF90BF90E8
:1027E000AF909F908F9008950E94A913089583E160
:1027F00091E00E94A913089560931301709314014E
:1028000080931501909316010895E89409C097FBF1
:102810003EF490958095709561957F4F8F4F9F4FB7
:102820009923A9F0F92F96E9BB279395F6958795FB
:1028300077956795B795F111F8CFFAF4BB0F11F4BE
:1028400060FF1BC06F5F7F4F8F4F9F4F16C0882365
:1028500011F096E911C0772321F09EE8872F762F9B
:1028600005C0662371F096E8862F70E060E02AF0DC
:102870009A95660F771F881FDAF7880F96958795C8
:1028800097F9089597F99F6780E870E060E00895F0
:102890009FEF80EC089500240A9416161706180678
:1028A0000906089500240A94121613061406050654
:1028B0000895092E0394000C11F4882352F0BB0FE5
:1028C00040F4BF2B11F460FF04C06F5F7F4F8F4F48
:1028D0009F4F089557FD9058440F551F59F05F3F83
:1028E00071F04795880F97FB991F61F09F3F79F032
:1028F00087950895121613061406551FF2CF4695B4
:10290000F1DF08C0161617061806991FF1CF869535
:102910007105610508940895E894BB276627772719
:10292000CB0197F90895DC01CB01FC01F999FECFA9
:1029300006C0F2BDE1BDF89A319600B40D92415047
:102940005040B8F70895DC01CB0103C02D910E94DF
:10295000AE1441505040D0F70895262FF999FECF7C
:102960001FBA92BD81BD20BD0FB6F894FA9AF99AAC
:102970000FBE01960895052E97FB1EF400940E9449
:10298000D21457FD07D00E94241507FC03D04EF443
:102990000C94D21450954095309521953F4F4F4F50
:1029A0005F4F089590958095709561957F4F8F4FFB
:1029B0009F4F08950E944615A59F900DB49F900DBE
:1029C000A49F800D911D11240895B7FF0C94DA1473
:1029D0000E94DA14821B930B08952F923F924F921C
:1029E0005F926F927F928F929F92AF92BF92CF929F
:1029F000DF92EF92FF920F931F93CF93DF93CDB7A8
:102A0000DEB7CA1BDB0B0FB6F894DEBF0FBECDBF1F
:102A100009942A88398848885F846E847D848C84F0
:102A20009B84AA84B984C884DF80EE80FD800C81F9
:102A30001B81AA81B981CE0FD11D0FB6F894DEBFDC
:102A40000FBECDBFED010895A1E21A2EAA1BBB1B3C
:102A5000FD010DC0AA1FBB1FEE1FFF1FA217B3076A
:102A6000E407F50720F0A21BB30BE40BF50B661F80
:102A7000771F881F991F1A9469F760957095809544
:102A800090959B01AC01BD01CF010895A29FB001BB
:102A9000B39FC001A39F700D811D1124911DB29F92
:102AA000700D811D1124911D089511E0C9E9D1E037
:102AB00004C0FE010E94D6102196CA39D107C9F779
:042AC000F894FFCFB8
:102AC400FFFF2DD456420D00FFBC02BC0200007F64
:102AD40004800001000000000000004902C501124A
:102AE40002F00104029002307800545820000A5B7E
:102AF4000070636153657269616C0031302E31007E
:102B04003E20465245512073657420746F3A20006C
:102B14003E2046524551004F4B00203F0023505267
:102B24004551200073656E643A2074696D656F7554
:102B340074004C2000522000203A20002034200051
:102B44006F706D6F64653A2074696D656F7574009C
:042B54000D0A000066
:00000001FF
